:020000040800F2
:1000000038080020E1020008051D0008071D00084F
:100010000B1D00080F1D0008131D00080000000044
:10002000000000000000000000000000171D000894
:10003000191D0008000000001B1D0008F90200083F
:10004000FB020008FB020008FB020008FB0200089C
:10005000FB020008FB020008FB020008FB0200088C
:10006000FB020008FB020008FB020008FB0200087C
:10007000FB020008FB020008FB020008FB0200086C
:10008000FB020008FB020008FB020008FB0200085C
:10009000FB020008FB020008FB020008FB0200084C
:1000A000FB020008FB020008FB020008FB0200083C
:1000B000FB020008FB020008FB020008FB0200082C
:1000C000FB020008FB020008FB020008FB0200081C
:1000D000FB0200081D1D0008FB020008FB020008CF
:1000E000FB020008FB020008FB020008DFF80CD04E
:1000F00002F044FE00480047ED2C000838080020BC
:100100000CB50020019000906C48006840F48030ED
:100110006A49086000BF6948006800F40030009038
:100120000198401C0190009818B90198B0F5A06F93
:10013000F1D16248006800F4003010B10120009055
:1001400001E0002000900098012843D15C4800683D
:1001500040F010005A4908600846006820F003008B
:1001600008600846006840F0020008605348406894
:10017000524948600846406848600846406840F474
:10018000806048600846406820F47C10486008465B
:10019000406840F4E81048600846006840F080700D
:1001A000086000BF4548006800F000700028F9D0E2
:1001B0004248406820F003004049486008464068D3
:1001C00040F00200486000BF3C48406800F00C006E
:1001D0000828F9D10CBD10B5FFF792FF10BD10B57E
:1001E0003648006840F0010034490860084640681D
:1001F000344908403149486008460068324908409F
:100200002E4908600846006820F4802008600846EF
:10021000406820F4FE0048604FF41F008860FFF73C
:10022000DAFF4FF000602949086010BD10B50021C9
:1002300000200022214B5B6803F00C0121B104294E
:1002400006D0082928D107E0214B224C236027E063
:100250001F4B204C236023E0184B5B6803F47010A5
:10026000164B5B6803F48032022303EB904022B903
:10027000194B4343174C23600DE0104B5B6803F4AC
:10028000003323B1144B4343124C236003E0104B63
:100290004343104C236003E00D4B0E4C236000BF22
:1002A00000BF064B5B68C3F303130C4CE15C094BC6
:1002B0001B68CB40074C236010BD000000100240BB
:1002C000002002400000FFF8FFFFF6FE08ED00E00E
:1002D00000127A000000002000093D000400002008
:1002E0000648804706480047FEE7FEE7FEE7FEE7D0
:1002F000FEE7FEE7FEE7FEE7FEE7FEE7DF010008B8
:10030000ED00000831490143314A1160704770B572
:10031000002100230F22C47804B32D4C246804F478
:10032000E064C4F5E064210AC1F10403CA404478E2
:1003300004FA03F18478144021430901254C06781E
:10034000A155047804F01F050124AC4005786D1117
:10035000AD0005F1E025C5F8004109E0047804F09E
:100360001F050124AC401C4D0678761145F8264047
:1003700070BD1A4A0A400243154B1B1F1A60704792
:1003800039B1134A121D12680243114B1B1D1A602A
:1003900006E00F4A121D126882430D4B1B1D1A60A6
:1003A0007047042808D14FF0E021096941F00401A9
:1003B0004FF0E022116107E04FF0E021096921F0E0
:1003C00004014FF0E0221161704700000000FA05BF
:1003D0000CED00E000E400E080E100E080FFFF1FA2
:1003E00010B50446CC48844208D10121042000F015
:1003F0002DFB0021042000F029FB46E0C748844281
:1004000008D10121082000F021FB0021082000F084
:100410001DFB3AE0C248844208D10121102000F0BF
:1004200015FB0021102000F011FB2EE0BD48844296
:1004300008D10121202000F009FB0021202000F03C
:1004400005FB22E0B848844208D10121402000F099
:10045000FDFA0021402000F0F9FA16E0B34884428A
:1004600008D10121802000F0F1FA0021802000F065
:10047000EDFA0AE0AE48844207D10121801500F070
:10048000E5FA0021A01500F0E1FA10BD10B5012138
:10049000084600F0DBFA0021012000F0D7FA10BD79
:1004A0002DE9F0410246002500260020002300240B
:1004B000002791F803C00CF00F0591F803C00CF071
:1004C000100CBCF1000F03D091F802C04CEA0505F6
:1004D00091F800C0BCF1000F31D0146800202BE06F
:1004E0004FF0010C0CFA00F3B1F800C00CEA03065F
:1004F0009E4220D183004FF00F0C0CFA03F7BC434F
:1005000005FA03FC4CEA040491F803C0BCF1280F7F
:1005100006D14FF0010C0CFA00FCC2F814C00AE03E
:1005200091F803C0BCF1480F05D14FF0010C0CFA53
:1005300000FCC2F810C0401C0828D1D31460B1F8E8
:1005400000C0BCF1FF0F34DD546800202EE000F144
:10055000080C4FF0010808FA0CF3B1F800C00CEADF
:1005600003069E4221D183004FF00F0C0CFA03F7D3
:10057000BC4305FA03FC4CEA040491F803C0BCF147
:10058000280F05D100F1080C08FA0CF8C2F8148005
:1005900091F803C0BCF1480F07D100F1080C4FF0EF
:1005A000010808FA0CF8C2F81080401C0828CED3C5
:1005B0005460BDE8F0814FF6FF7101800221817027
:1005C0000421C17070470246002093680B400BB1B4
:1005D000012000E0002070470146886880B2704723
:1005E00002460020D3680B400BB1012000E0002040
:1005F00070470146C86880B2704701617047416129
:1006000070470AB1016100E041617047C160704705
:100610004FF480320A43826181618261826982691A
:10062000704702460020434B18684FF6807318400D
:1006300040EA021008433F4B186070473E49C861CA
:100640007047F0B50A46002300240021002500F081
:100650000046B6F1004F02D1364EF16901E0354E49
:100660007168C0F3034583B200F44016B6F5401F2D
:1006700008D121F070612F4E766826F070662D4FFC
:100680007E6012E000F48016B6F5801F06D10326C6
:1006900006FA05F4A14341F0706106E0460D36010B
:1006A00003FA06F6B14341F0706122B1460D3601FE
:1006B00003FA06F6314300F00046B6F1004F02D1CE
:1006C0001C4EF16101E01B4E7160F0BD30B500229F
:1006D0008B071C0F0F2303FA04F2164B08338C1000
:1006E00053F824309343134C08348D1044F82530CC
:1006F00023468C1053F824308C07240F00FA04F49E
:1007000023430C4C08348D1044F8253030BD0A4981
:10071000DC3108607047000000080140000C014017
:10072000001001400014014000180140001C01406D
:10073000002001400000014000002042DF48006826
:1007400040F00100DD49086008464068DC49084087
:10075000DA49486008460068DA490840D749086025
:100760000846006820F4802008600846406820F4AD
:10077000FE0048604FF41F0088607047CF49096849
:1007800021F48031CD4A11601146096821F480219D
:100790001160B0F5803F03D0B0F5802F0ED106E098
:1007A000C649096841F48031C44A116007E0C34971
:1007B000096841F4A021C14A116000E000BF00BFF8
:1007C000704710B501460022002300204A11012A7B
:1007D00002D1BA4C236806E0022A02D1B74C236A40
:1007E00001E0B64C636A01F01F02012494401C40F2
:1007F0000CB1012000E0002010BD38B500200090B1
:100800000024002500BF3120FFF7DBFF05460098DC
:10081000401C00900098B0F5A06F01D0002DF2D0E0
:100820003120FFF7CEFF08B1012400E0002420466C
:1008300038BD01460020A14A106820F0F80040EAC7
:10084000C10010607047A049086070470246002050
:100850009A4B586820F47C1042EA01031843974BE6
:100860005860704798490866704701460020934ACF
:10087000506820F003000843506070478F4840687C
:1008800000F00C007047014600208C4A506820F0B0
:10089000F00008435060704701460020874A5068C6
:1008A00020F4E06008435060704701460020834A0E
:1008B000506820F4605040EAC1005060704729B190
:1008C0007E4A527A02437D4B5A7204E07B4A527A46
:1008D00082437A4B5A7270477B49D831086070471F
:1008E00001460020754A506820F44040084350609B
:1008F00070470021714A20321170704A82F820102E
:10090000012802D004280AD104E001216B4A2032D8
:10091000117005E00521694A2032117000E000BF26
:1009200000BF70476949086070476449096A01431C
:10093000624A11627047654944390860704730B5B2
:1009400000210022002400235C4D6D6805F00C019D
:1009500021B1042905D0082923D105E05C4D0560AB
:1009600022E05B4D05601FE0544D6D6805F4701288
:10097000524D6D6805F48034022505EB92421CB996
:10098000544D554305600BE04C4D6D6805F4003542
:100990001DB1504D5543056002E04D4D5543056076
:1009A00002E04B4D056000BF00BF444D6D6805F08F
:1009B000F0010909484D6B5C0568DD4045603F4D1D
:1009C0006D6805F4E061090A434D6B5C4568DD40E4
:1009D00085603A4D6D6805F46051C90A3E4D6B5C07
:1009E0004568DD40C560354D6D6805F44041890BB3
:1009F0003A4D6B5CC568B5FBF3F5056130BD29B1B7
:100A00002E4A526902432D4B5A6104E02B4A526927
:100A100082432A4B5A61704729B1284A926902439E
:100A2000264B9A6104E0254A92698243234B9A61DE
:100A3000704729B1214AD2690243204BDA6104E0B0
:100A40001E4AD26982431D4BDA61704729B11B4AA5
:100A5000D2680243194BDA6004E0184AD268824334
:100A6000164BDA60704729B1144A12690243134BDE
:100A70001A6104E0114A12698243104B1A617047EF
:100A800012494039086070470F49C86470470B49E4
:100A9000C87170470948406A40F080700749486251
:100AA000704701460020054A92680A400AB10120B9
:100AB00000E0002070470149887270470010024032
:100AC0000000FFF8FFFFF6FE0000424280044242B1
:100AD00000127A0000093D001400002024000020CC
:100AE00010B50446FE48844208D10121C014FFF726
:100AF000ADFF0021E014FFF7A9FFC4E0B4F1804F7F
:100B000008D101210846FFF7AEFF00210120FFF7C1
:100B1000AAFFB8E0F348844208D101210220FFF780
:100B2000A2FF00210220FFF79EFFACE0EE488442C6
:100B300008D101210420FFF796FF00210420FFF7D0
:100B400092FFA0E0E948844208D101210820FFF784
:100B50008AFF00210820FFF786FF94E0E4488442E2
:100B600008D101211020FFF77EFF00211020FFF7A0
:100B70007AFF88E0DF48844208D101212020FFF776
:100B800072FF00212020FFF76EFF7CE0DA488442EC
:100B900008D101214014FFF759FF00216014FFF72D
:100BA00055FF70E0D548844209D10121C804FFF700
:100BB0004DFF00214FF40020FFF748FF63E0D048CD
:100BC000844209D101210805FFF740FF00214FF4BD
:100BD0008010FFF73BFF56E0CA48844209D101214B
:100BE0004805FFF733FF00214FF40010FFF72EFFF9
:100BF00049E0C548844208D101214020FFF733FF76
:100C000000214020FFF72FFF3DE0C048844208D17B
:100C100001218020FFF727FF00218020FFF723FF1D
:100C200031E0BB48844208D101218015FFF71BFF4A
:100C30000021A015FFF717FF25E0B648844209D12F
:100C400001210804FFF702FF00214FF48030FFF775
:100C5000FDFE18E0B048844209D101214804FFF7A5
:100C6000F5FE00214FF40030FFF7F0FE0BE0AB483B
:100C7000844208D101218804FFF7E8FE00214FF4E7
:100C80008020FFF7E3FE10BD00220288944B9842BB
:100C90000ED0994B98420BD0B0F1804F08D0914BB9
:100CA000984205D0904B984202D0904B984204D184
:100CB0004FF68F731A404B881A438D4B984207D0DA
:100CC0008C4B984204D04FF6FF431A40CB881A430E
:100CD00002808B8883850B880385814B98420BD0DB
:100CE000854B984208D08B4B984205D08A4B98424E
:100CF00002D08A4B984201D10B7A0386012383826A
:100D0000704770B5002400220023058C4FF6FE7654
:100D100035400584028C8388048B4FF68F752C40F8
:100D2000B51E2C400D882C43751E2A400D892A4380
:100D30004D882A436A4DA8420BD06F4DA84208D077
:100D4000744DA84205D0744DA84202D0734DA842FC
:100D500013D14FF6F7752A404D892A434FF6FB759C
:100D60002A408D882A434FF6FF652B404FF6FF55EA
:100D70002B408D892B43CD892B4383800483CD88E1
:100D80008586028470BD70B5002400220023058C86
:100D90004FF6EF7635400584028C8388048B48F645
:100DA000FF752C404FF6FF452C400D884FF6FF761F
:100DB00006EA05252C434FF6DF752A400D8906EA21
:100DC00005152A434D8806EA05152A43444DA842D5
:100DD00002D0494DA8421DD14FF67F752A404D895A
:100DE0004FF6FF7606EA05152A434FF6BF752A40EF
:100DF0008D8806EA05152A434FF6FF352B404FF242
:100E0000FF752B408D8906EA85052B43CD8906EABF
:100E100085052B4383800483CD880587028470BDBC
:100E200070B5002400220023058C4FF6FF66354084
:100E30000584028C8388848B4FF68F752C404FF687
:100E4000FC752C400D882C434FF6FF552A400D8928
:100E50004FF6FF7606EA05252A434D8806EA052562
:100E60002A431F4DA84202D0234DA8421DD14FF264
:100E7000FF752A404D894FF6FF7606EA05252A437D
:100E80004FF6FF352A408D8806EA05252A434EF69F
:100E9000FF752B404DF6FF752B408D8906EA051531
:100EA0002B43CD8906EA05152B4383808483CD88A7
:100EB0008587028470BD70B5002200230024058C54
:100EC0004EF6FF7635400584038C8488828B48F685
:100ED000FF752A404FF6FF452A400D8820E00000AC
:100EE000002C01400004004000080040000C0040BD
:100EF000001000400014004000340140004C01404C
:100F0000005001400054014000180040001C004007
:100F100000200040004001400044014000480140E2
:100F20004FF6FF7606EA05252A434DF6FF752B405E
:100F30000D8906EA05352B434D8806EA05352B4316
:100F4000FA4DA84202D0FA4DA84208D14BF6FF75DF
:100F50002C408D894FF6FF7606EA85152C43848058
:100F60008283CD88A0F84050038470BD828B4FF2FD
:100F7000FF331A408283828B4FF6FF7303EA01230B
:100F80001A4382837047F0B50C46154600220021B3
:100F90000026078C4EF6FF7C07EA0C070784828B3D
:100FA000018C4FF6FF7707EA043640F6FF473A40D8
:100FB0004FF6FF7707EA05273A434FF6FF7707EA30
:100FC00003373A43D94FB8420ED0D94FB8420BD06D
:100FD000B0F1804F08D0D74FB84205D0D64FB842B5
:100FE00002D0D64FB84206D14DF6FF77394046F4CD
:100FF0008057394305E047F6FF57394044F480579E
:10100000394382830184F0BD828B4FF6F3731A401B
:101010008283828B0A4382837047F0B50C46154663
:10102000002200210026078C4FF6FF6C07EA0C0710
:101030000784828B018C4FF6FF7707EA04264FF670
:101040000C773A404FF6FF7707EA03172F433A43EE
:10105000B64FB8420ED0B64FB8420BD0B0F1804F69
:1010600008D0B44FB84205D0B34FB84202D0B34F06
:10107000B84206D14FF6FF57394046F480773943DE
:1010800005E04FF2FF57394044F4807739438283BB
:101090000184F0BD028B4FF2FF331A400283028BB2
:1010A0004FF6FF7303EA01231A4302837047F0B53A
:1010B0000C461546002200210026078C4FF6EF7CD7
:1010C00007EA0C070784028B018C4FF6FF7707EACB
:1010D000041640F6FF473A404FF6FF7707EA03371A
:1010E0003A434FF6FF7707EA05273A438F4FB84256
:1010F0000ED08F4FB8420BD0B0F1804F08D08D4F3B
:10110000B84205D08C4FB84202D08C4FB84206D1BD
:101110004FF6DF77394046F01007394305E04FF6C8
:101120005F77394044F01007394302830184F0BDF2
:10113000028B4FF6F3731A400283028B0A43028339
:101140007047F0B50C46154600220021068C4FF67C
:10115000FE773E400684028B018C4FF60C763240BF
:101160007E1C06EA03162E433243704EB0420ED068
:101170006F4EB0420BD0B0F1804F08D06D4EB042F0
:1011800005D06D4EB04202D06C4EB04206D14FF643
:10119000FD76314044F00106314305E04FF6F57627
:1011A000314044F00106314302830184F0BD70B543
:1011B00005460C465D4885420ED05D4885420BD001
:1011C000B5F1804F08D05B48854205D05A4885422A
:1011D00002D05A48854200D100E000BF208850B9B3
:1011E0002389A28861882846FFF7ABFFE18828465B
:1011F000FFF79EFF25E0208804280AD12389A288D2
:1012000061882846FFF753FFE1882846FFF742FF31
:1012100017E0208808280AD12389A28861882846F7
:10122000FFF7FBFEE1882846FFF7EEFE09E0238981
:10123000A28861882846FFF7A6FEE1882846FFF7C6
:1012400095FE70BD2DE9F04105460C4600260127AC
:10125000608808B9022600E00026A088012801D194
:10126000022700E001272088A0B92389A28861888D
:101270002846FFF766FFE1882846FFF759FF2389D4
:101280003A4631462846FFF712FFE1882846FFF725
:1012900001FF13E02389A28861882846FFF707FF32
:1012A000E1882846FFF7F6FE23893A46314628466C
:1012B000FFF747FFE1882846FFF73AFFBDE8F081D6
:1012C0000A884B881A438B881A43CB881A430B89A8
:1012D0001A434B891A438B891A43A0F8442070475C
:1012E0004FF6FF71818000210180C1804180017231
:1012F00070470021018041808180C180018141814E
:101300008181C1817047002101804180012181805C
:101310000021C180018170470021018041808180CE
:10132000C18001814181818170470000002C014012
:10133000003401400004004000080040000C004060
:1013400021B1028842F00102028004E002884FF6D7
:10135000FE731A400280704731B1B0F8442042F465
:101360000042A0F8442005E0B0F84420C2F30E0289
:10137000A0F8442070471AB183890B43838102E0AF
:1013800083898B43838170478182704741EA0203DE
:10139000A0F8483070471AB183890B43838102E07B
:1013A00083898B438381704701894FF6F87211401E
:1013B000018170470A46002101894FF68F73194059
:1013C00011430181704730B504460D462946204639
:1013D000FFF7F0FF208940F00700208130BD2DE9A4
:1013E000F04104460D4616461F46602D06D13B4689
:1013F000012231462046FFF75AFE05E03B46012216
:1014000031462046FFF79DFE29462046FFF7D2FFD2
:10141000208940F007002081BDE8F08130B50C46FE
:1014200000210189C9B24FF6FF7505EA032515436E
:1014300025432943018130BD2DE9F04105460E4683
:1014400017469846002443463A4631462846FFF759
:10145000E5FF2C894FF6F870044044F007044FF67E
:101460008F70044044F070042C81BDE8F081F0B529
:1014700004460D4616461F463B4632462946204640
:10148000FFF7CCFF208940F480402081F0BD01852A
:10149000828270470A46002101884FF68F731940F7
:1014A000114301807047F0B50C4615461E460021D9
:1014B000002200230189028B038C4FF6F877394014
:1014C00021434FF6FC473A4040F201173A434FF6AA
:1014D000DD773B404FF6FF7707EA06172F433B4384
:1014E000018102830384F0BD0A460021018B4FF67F
:1014F0008F7319401143018370470A460021018B05
:1015000048F6FF7319404FF6FF7303EA02231943AD
:10151000018370470A460021818B4FF68F73194073
:101520001143818370470A460021818B48F6FF737F
:1015300019404FF6FF7303EA022319438183704772
:1015400021B1028842F08002028004E002884FF656
:101550007F731A400280704721B1828842F00402F2
:10156000828004E082884FF6FB731A4082807047C5
:1015700021B1828842F00802828004E082884FF61E
:10158000F7731A408280704721B1828842F00102CD
:10159000828004E082884FF6FE731A408280704792
:1015A0000A460021018B4FF6F7731940114301835E
:1015B00070470A460021018B4FF2FF7319404FF626
:1015C000FF7303EA02231943018370470A4600218F
:1015D000818B4FF6F77319401143818370470A4698
:1015E0000021818B4FF2FF7319404FF6FF7303EA1E
:1015F00002231943818370470A460021018B4FF66D
:10160000FB7319401143018370470A460021018B87
:101610004FF6FF3319404FF6FF7303EA02231943D5
:10162000018370470A460021818B4FF6FB731940F6
:101630001143818370470A460021818B4FF6FF33A7
:1016400019404FF6FF7303EA022319438183704761
:101650000A460021018B4FF67F7319401143018325
:1016600070470A460021018BC1F30E014FF6FF734C
:1016700003EA02231943018370470A460021818B44
:101680004FF67F7319401143818370470A4600214A
:10169000818BC1F30E014FF6FF7303EA0223194356
:1016A000818370470A460021018C4FF6FD73194073
:1016B0001143018470470A460021018C4FF6F773ED
:1016C00019401143018470470A460021018C4FF6EE
:1016D000DF7319404FF6FF7303EA021319430184C5
:1016E00070470A460021018C4FF67F7319404FF670
:1016F000FF7303EA02131943018470470A4600216D
:10170000018C4FF6FF5319404FF6FF7303EA022393
:101710001943018470470A460021018C4FF2FF7380
:1017200019404FF6FF7303EA0223194301847047FF
:101730000A460021018C4DF6FF7319404FF6FF73E6
:1017400003EA023319430184704730B500230124B2
:101750008C40A3B2048C9C430484048C02FA01F5EF
:10176000ADB22C43048430BD30B5002304248C403A
:10177000A3B2048C9C430484048C02FA01F5ADB23C
:101780002C43048430BD70B5034600200024184665
:10179000183001258D40ACB21D8CA5431D8409B1C4
:1017A000082909D100EB6100056825F07005056086
:1017B0000568154305600EE00D1FC5F34E0528446E
:1017C000056825F4E045056005684FF6FF7606EAF2
:1017D00002263543056070BD21B1028842F0020245
:1017E000028004E002884FF6FD731A4002807047C1
:1017F00021B1028842F00402028004E002884FF620
:10180000FB731A400280704721B1828842F0800247
:10181000828004E082884FF67F731A40828070478E
:1018200002884FF6F7731A40028002880A4302804A
:10183000704782884FF68F731A40828082880A43ED
:101840008280704702894FF6F8731A40028102893C
:101850000A430281704702894FF67F731A40028162
:1018600002890A43028170478184704781857047ED
:10187000818670470187704781877047A0F84010C4
:10188000704702884FF6FF431A40028002880A43DD
:10189000028070470146888E70470146088F704766
:1018A0000146888F70470146B1F8400070470146F5
:1018B000888C70470146088D704702460020138AC5
:1018C0000B400BB1012000E000207047CA430282A8
:1018D000704730B50246002000230024158A05EA2F
:1018E0000103958905EA010413B10CB1012000E060
:1018F000002030BDCA4302827047000010B5044684
:10190000FB48844209D101218803FFF79FF8002199
:101910004FF48040FFF79AF832E0F648844209D14C
:1019200001214804FFF79FF800214FF40030FFF732
:101930009AF825E0F048844209D101218804FFF794
:1019400092F800214FF48020FFF78DF818E0EB4863
:10195000844209D10121C804FFF785F800214FF422
:101960000020FFF780F80BE0E548844208D1012110
:101970000805FFF778F800214FF48010FFF773F89F
:1019800010BD2DE9F04786B005460E460024A2465C
:1019900000BFA1460027B08900B100BF2F462C8AA6
:1019A0004CF6FF700440F08804432C82AC894EF65C
:1019B000F3100440B0883189084371890843044317
:1019C000AC81AC8A4FF6FF400440B0890443AC823E
:1019D00001A8FEF7B4FFC648874202D1DDF810A087
:1019E00001E0DDF80CA0A88900F4004040B10AEB4A
:1019F000CA0000EB0A1031684900B0FBF1F807E0BB
:101A00000AEBCA0000EB0A1031688900B0FBF1F85C
:101A10006420B8FBF0F004012009642101FB108967
:101A2000A88900F4004040B1322000EBC900B0FBAF
:101A3000F1F000F00700044308E0322000EB091049
:101A40006421B0FBF1F000F00F0004432C8106B0DC
:101A5000BDE8F0874FF41651016000218180C180FC
:101A600001810C21418100218181704710B502461E
:101A70000020108A4FF2FF0318400B884C88234344
:101A80008C882343CC8823431843108210BD002147
:101A9000018041808180C180704721B1828942F4F8
:101AA0000052828104E082894DF6FF731A408281E0
:101AB0007047F0B50346002400260025002040F6BC
:101AC0006A17B94200D100BF1846C1F3421401F0B1
:101AD0001F06012707FA06F5012C01D10C3004E09E
:101AE000022C01D1103000E014301AB107682F43E6
:101AF000076002E00768AF430760F0BD1AB1838A50
:101B00000B43838202E0838A8B4383827047028A7D
:101B10004FF6F0731A400282028A0A43028270472B
:101B200082894FF2FF731A40828182890A4382813F
:101B3000704721B1828942F00202828104E08289E9
:101B40004FF6FD731A4082817047028A4FF6DF73A9
:101B50001A400282028A0A430282704721B1028A35
:101B600042F48042028204E0028A4BF6FF731A407C
:101B700002827047C1F3080282807047014688885C
:101B8000C0F308007047818941F0010181817047ED
:101B9000028BD2B20283028B42EA01220283704797
:101BA000028B02F47F420283028B0A430283704756
:101BB00021B1828A42F02002828204E0828A4FF6BA
:101BC000DF731A408282704721B1828A42F010028C
:101BD000828204E0828A4FF6EF731A408282704755
:101BE00021B1828A42F00802828204E0828A4FF6A2
:101BF000F7731A408282704721B1828942F4004211
:101C0000828103E08289C2F30E028281704721B192
:101C1000828A42F40062828204E0828A4FF2FF7379
:101C20001A4082827047828A4FF6FB731A40828282
:101C3000828A0A438282704721B1828A42F002027C
:101C4000828204E0828A4FF6FD731A4082827047D6
:101C500002460020B1F5007F00D100BF13880B4081
:101C60000BB1012000E00020704701F40072B2F5D2
:101C7000007F00D100BFCA430280704770B50246A2
:101C8000002400230025002040F66A16B14200D14E
:101C900000BFC1F3421501F01F03012606FA03F34A
:101CA000012D02D19689334006E0022D02D1168A19
:101CB000334001E0968A33400C12012606FA04F400
:101CC0001688344013B10CB1012000E0002070BD33
:101CD00010B50022002340F66A14A14200D100BFD3
:101CE0000A1201249440A3B2DC43048010BD00001A
:101CF000003801400044004000480040004C0040D3
:101D000000500040704700BFFEE700BFFEE700BF85
:101D1000FEE700BFFEE770477047704710B540F21E
:101D200025511B48FFF7AAFFD8B11948FFF726FF36
:101D3000C4B21848B0F80004C0F30E0040F2FF31FE
:101D400088420EDA1349B1F80014C1F30E00411CA9
:101D5000104AB2F8002461F30E020E49A1F80024E3
:101D60000C5440F224410A48FFF788FF01280DD1A6
:101D70000848B0F8000420F4004000F50040054990
:101D8000A1F800040248FFF7F9FEC4B210BD00003C
:101D90000038014030000020F0B503460D461646DD
:101DA000002729460A2E03D0002008702846F0BDDF
:101DB00033B9302001F8010B002008702846F6E7FF
:101DC000002B03DA2D2001F8010B5B4242F2107266
:101DD0000DE093FBF2F404B937B104F1300001F8DF
:101DE000010B04FB123301270A2092FBF0F2002AB8
:101DF000EFDC002008702846D9E70FB470B586B034
:101E000006460CA8019073E00B9800785C281CD162
:101E10000B98401C0B9000786E2809D072280FD1C7
:101E20000D213046FFF7A6FE0B98401C0B900BE0EF
:101E30000A213046FFF79EFE0B98401C0B9003E0F2
:101E40000B98401C0B9000BF4BE00B9800782528A6
:101E500040D10B98401C0B900078642818D0732850
:101E600033D1019810C801900BE021783046FFF77C
:101E700081FE00BF80213046FFF7EAFE0028F9D03E
:101E8000641C20780028F0D10B98401C0B9020E0B7
:101E9000019820C801900A2202A92846FFF77CFF7A
:101EA00002AC0BE021783046FFF764FE00BF8021D2
:101EB0003046FFF7CDFE0028F9D0641C20780028BA
:101EC000F0D10B98401C0B9003E00B98401C0B903A
:101ED00000BF06E00B9810F8011B0B903046FFF78F
:101EE00049FE00BF80213046FFF7B2FE0028F9D03E
:101EF0000B980078002887D106B070BC5DF814FB01
:101F000008B54FF4A060FEF7FDF925208DF800001C
:101F100000208DF801008DF8020001208DF80300EB
:101F20006846FEF7F4F908BD00B585B001218803C5
:101F3000FEF772FD01210820FEF76EFD4FF4806070
:101F4000ADF8100018208DF8130003208DF8120052
:101F500004A9FE48FEF7A4FA4FF40060ADF81000A3
:101F600004208DF8130004A9F848FEF799FA4FF4FD
:101F7000E13000900020ADF80400ADF80600ADF8A7
:101F80000800ADF80C000C20ADF80A006946F048D6
:101F9000FFF7F7FC012240F22551ED48FFF789FDDC
:101FA000012240F22441EA48FFF783FDFFF7A8FF32
:101FB0000121E748FFF771FD05B000BD08B501211B
:101FC0000802FEF729FD2020ADF8000010208DF852
:101FD000030003208DF802006946DE48FEF760FA30
:101FE00001210802FEF718FD4020ADF80000694607
:101FF000D848FEF755FA08BD10B5FFF7DFFFFFF729
:1020000093FF4021D348FEF7F8FA2021D148FEF78C
:10201000F6FA10BD10B54021CE48FEF7F0FA4FF4A5
:10202000FA7000F080FD4021CA48FEF7E6FA10BDC4
:102030002DE9F04106460C4615461F46C648B0F845
:1020400000046FF30E00C449A1F800043246C3A196
:10205000BF48FFF7D2FE1CB915B90120BDE8F081D9
:10206000B8B200F060FD0020BB49B1F80014C1F324
:102070000E01B94A50541146BAA000F091FEB4B115
:10208000ADB12146B44800F051FE08B1012000E096
:10209000002040B92946B04800F048FE08B10120B0
:1020A00000E0002008B10120D8E70020D6E744B1C5
:1020B0002146A94800F03AFE08B10120CEE70020F1
:1020C000CCE72946A44800F031FE08B10120C5E75D
:1020D0000020C3E710B5002440219E48FEF78DFA8A
:1020E0004FF47A7000F01FFD0CE04FF4FA730022F9
:1020F0009DA19EA0FFF79CFF00B110BDFFF78AFFD6
:10210000601CC4B20A2CF0DB00BFF6E710B5044631
:1021100024B1012C0AD0022C18D10FE040F6C413D0
:1021200093A291A195A0FFF783FF10BD40F6C413C1
:102130008FA28DA194A0FFF77BFFF6E740F6C413B2
:102140008BA289A193A0FFF773FFEEE70020ECE7D5
:1021500030B59FB004460D462B46224690A101A8FB
:1021600000F02EFE41F2883300227FA101A8FFF784
:102170005FFF1FB030BD70B5A0B004460D461646D7
:102180002B4622468BA102A8009600F019FE4FF4C0
:102190007A73002274A102A8FFF74AFF20B070BD35
:1021A00010B586B004460CB1012000E000200246C4
:1021B00086A101A800F004FE4FF47A7300226AA100
:1021C00001A8FFF735FF06B010BDF0B5B9B006465F
:1021D0000F4614461D46642120A800F09CFD16B150
:1021E000012E10D107E03B467CA27DA120A80094DF
:1021F00000F0E6FD08E03B467DA279A120A800940E
:1022000000F0DEFD00E000BF00BF052D06DA20ABC8
:102210002A4678A102A800F0D3FD04E020AA7AA102
:1022200002A800F0CDFD4FF47A637BA24EA102A874
:10223000FFF7FEFE39B0F0BD70B59EB004460D4606
:10224000164674B12B46012277A1684600F0B8FD0E
:102250004FF47A73002244A16846FFF7E9FE1EB0EE
:1022600070BD76A000F09CFD0120F8E710B54FF49A
:10227000FA7300223CA177A0FFF7DAFEA0B179A1A2
:10228000354800F053FD08B1022010BD78A1324856
:1022900000F04CFD08B10320F7E778A12E4800F0CC
:1022A00045FD08B10420F0E70020EEE710B500245A
:1022B0004FF4FA7300222CA166A0FFF7B9FE0028A4
:1022C00031D071A1244800F031FD10B144F0010477
:1022D00001E024F0010470A11F4800F027FD10B1B7
:1022E00044F0020401E024F002046FA11A4800F057
:1022F0001DFD10B144F0040401E024F004046EA1BB
:10230000154800F013FD10B144F0080401E024F07A
:1023100008046DA1104800F009FD10B144F010044C
:1023200001E024F01004204610BD2DE9F0410546DF
:102330000F464FF4FA7300220BA167A0FFF778FE57
:1023400068A1054800F0F2FC0646CFE0000C014011
:1023500000380140000801403000002025730D0ABC
:1023600000000000257300004F4B000041540000A6
:102370006E6F206368616E676500000041542B43F7
:10238000574D4F44453D310041542B43574D4F4429
:10239000453D320041542B43574D4F44453D33009A
:1023A00041542B43574A41503D222573222C22256C
:1023B0007322000041542B43575341503D22257353
:1023C000222C222573222C312C25640041542B43CE
:1023D00049504D55583D25640000000054435000BD
:1023E000222573222C222573222C25730000000045
:1023F0005544500041542B43495053544152543D8D
:1024000025642C257300000041542B43495053543C
:102410004152543D25730000414C524541592043DF
:102420004F4E4E454354000041542B4349505345B1
:10243000525645523D25642C2573000041542B43D0
:1024400049505345525645523D312C383038300DA5
:102450000A00000041542B434950535441545553F2
:10246000000000005354415455533A320D0A000005
:102470005354415455533A330D0A000053544154B8
:1024800055533A340D0A00002B43495053544154DC
:1024900055533A302C0000002B43495053544154BB
:1024A00055533A312C0000002B43495053544154AA
:1024B00055533A322C0000002B4349505354415499
:1024C00055533A332C0000002B4349505354415488
:1024D00055533A342C00000041542B434946535283
:1024E00000000000415049502C2200000EB1B61DE2
:1024F00002E00020BDE8F081002409E0305D2855AD
:10250000285D222802D10020285503E0601CC4B2B7
:10251000BC42F3DB00BF0120ECE710B54FF4FA73C7
:102520000022AFF2BC115FA0FFF782FD08B90020C6
:1025300010BD4FF4FA735FA2AFF2D4115EA0FFF7A3
:1025400077FDF5E710B54FF47A7000F0ECFA5DA175
:102550005D48FFF752FC4FF4FA7000F0E4FA10BD4A
:102560002DE9F04186B007460C4615461E464FF051
:10257000000847B12246AFF214215348FFF73DFC53
:102580004FF001081BE0052E06DAAB1C32464FA1C6
:1025900001A800F015FC04E0AA1C51A101A800F05C
:1025A0000FFC6423002252A101A8FFF741FD4FF464
:1025B000FA7300224FA12046FFF73AFD80464046BD
:1025C00006B0BDE8F08170B5044600254B48B0F870
:1025D00000046FF30E004949A1F800040846B0F862
:1025E000000420F40040A1F8000400BF4348B0F804
:1025F0000004C00B0028F9D000204049B1F80014B5
:10260000C1F30E013D4A50540CB1154605E03CA102
:102610003A4800F08BFB00B1384D284670BD2DE9DB
:10262000F041054664230022AFF2C42136A0FFF733
:10263000FFFCAFF2A011314800F078FB8046B8F102
:10264000000F09D033A12D4800F070FB00F10B07FB
:10265000A8EB0700C6B202E00020BDE8F08100242C
:1026600003E0385D2855601CC4B2B442F9DB002099
:10267000A8550120F1E710B588B00446224628A1EC
:10268000684600F09DFB41F288330022AFF228310A
:102690006846FFF7CDFC10B1012008B010BD002046
:1026A000FBE7000041542B4349504D4F44453D3119
:1026B000000000003E00000041542B4349505345A8
:1026C0004E4400002B2B2B000038014041542B437B
:1026D000495053454E443D25642C256400000000BC
:1026E00041542B43495053454E443D25640000005E
:1026F0003E20000053454E44204F4B003000002048
:102700002B4950440000000041542B43574C49468C
:102710000000000041542B43574C49460D0D0A0060
:1027200041542B43495041503D2225732200000063
:1027300008B501210420FEF76FF94020ADF8000034
:1027400018208DF8030003208DF8020069464848E0
:10275000FDF7A6FE01210420FEF75EF98020ADF80A
:10276000000018208DF8030003208DF80200694650
:102770003F48FDF795FE01210820FEF74DF90120A5
:10278000ADF8000018208DF8030003208DF802003A
:1027900069463848FDF784FE01210820FEF73CF920
:1027A0000220ADF8000018208DF8030003208DF8FA
:1027B000020069462F48FDF773FE08BDF0B587B0EB
:1027C000002400250026002701210220FEF731F910
:1027D00042F21070ADF814006420ADF81000002033
:1027E000ADF81600ADF812008DF8180004A92248C3
:1027F000FEF74AFA6020ADF800000120ADF80200B3
:102800000020ADF80800ADF8064069461A48FEF70A
:1028100078FA08211848FEF7C3FEADF8065069465D
:102820001548FEF7B0FA08211348FEF7C2FEADF8CE
:10283000066069461048FEF7F3FA08210E48FEF7D5
:10284000C5FEADF8067069460B48FEF734FB08215B
:102850000948FEF7C4FE01210748FEF771FD07B0E5
:10286000F0BD10B5FFF764FFFFF7A8FF10BD000033
:1028700000080140000C0140000400401FB5044660
:102880006020ADF800000120ADF802000020ADF896
:102890000800ADF8064069463648FEF732FA0821CE
:1028A0003448FEF77DFE01213248FEF749FD1FBD89
:1028B00010B5044642F2107060434FF4FA7190FB79
:1028C000F1F0401C84B22046FFF7D8FF10BD1FB5C1
:1028D00004466020ADF800000120ADF802000020A1
:1028E000ADF80800ADF8064069462248FEF74BFAFD
:1028F00008212048FEF75DFE01211E48FEF720FD5D
:102900001FBD10B5044642F2107060434FF4FA71D7
:1029100090FBF1F0401C84B22046FFF7D8FF10BDB9
:102920001FB504466020ADF800000120ADF802009C
:102930000020ADF80800ADF8064069460D48FEF7E6
:102940006FFA08210B48FEF741FE01210948FEF706
:10295000F7FC1FBD10B5044642F2107060434FF4FF
:10296000FA7190FBF1F0401C84B22046FFF7D8FFCB
:1029700010BD00000004004008B501210820FEF74A
:102980004BF82020ADF8000010208DF80300032044
:102990008DF8020069461548FDF782FD01210820E7
:1029A000FEF73AF80120ADF8000069460F48FDF740
:1029B00077FD01210820FEF72FF80220ADF8000076
:1029C00069460A48FDF76CFD08BD10B5FFF7D4FF56
:1029D00020210648FDF711FE01210448FDF70DFEF8
:1029E00002210248FDF709FE10BD0000000C014065
:1029F00000B585B001218803FEF70EF801210420FF
:102A0000FEF70AF84FF40070ADF8100018208DF8AA
:102A1000130003208DF8120004A92248FDF740FDA1
:102A20004FF48060ADF8100004208DF8130004A965
:102A30001C48FDF735FD4FF4E13000900020ADF863
:102A40000400ADF80600ADF80800ADF80C000C204D
:102A5000ADF80A0069461448FEF793FF01211248B9
:102A6000FFF71BF805B000BD70B504460D46E1B296
:102A70000D48FFF77FF800BF80210B48FFF7E8F80B
:102A80000028F9D0204670BD10B5044600BF2021B3
:102A90000548FFF7DDF80028F9D00348FFF76EF886
:102AA00010BD0000000801400038014010B56FF073
:102AB0000400FDF776FC2E4800682E49B0FBF1F0CB
:102AC0002D4908700846007800EB4001C1EBC010AA
:102AD0004FF6FF7101EAC0002849088010BD014689
:102AE000254A12784A434FF0E0235A6100229A6146
:102AF0001A46126942F001021A6100BF4FF0E0224B
:102B0000106900F001021AB100F48032002AF5D0F9
:102B10004FF0E022126922F001024FF0E0231A6127
:102B200000229A6170470146144A12884A434FF0C6
:102B3000E0235A6100229A611A46126942F00102AA
:102B40001A6100BF4FF0E022106900F001021AB1D3
:102B500000F48032002AF5D04FF0E022126922F012
:102B600001024FF0E0231A6100229A6170470000D1
:102B70000000002000127A00280000202A00002017
:102B80009AB0642101A800F0C6F80120FFF708FB05
:102B900048A24AA10120FFF74FFB4A48B0F80004C1
:102BA0006FF30E004749A1F800040846B0F800048E
:102BB00020F4004000F50040A1F8000479E041480D
:102BC000B0F80004C00B002873D0002240F2255159
:102BD0003D48FEF76EFF00203A49B1F80014C1F3FA
:102BE0000E01384A505439A1104600F09FF8041ED7
:102BF00014D0A57AE67A277BA5F1300064214843FA
:102C0000A6F1300101EB810100EB4101A7F1300099
:102C100008441FFA80F84046FFF74AFE2EA12948D3
:102C200000F084F8041E14D0E57A267B677BA5F1BA
:102C3000300064214843A6F1300101EB810100EB33
:102C40004101A7F1300008441FFA80F94846FFF718
:102C500058FE24A11B4800F069F8041E14D0A57981
:102C6000E679277AA5F1300064214843A6F13001C6
:102C700001EB810100EB4101A7F1300008441FFA8C
:102C800080FA5046FFF766FE0E48B0F800046FF376
:102C90000E000C49A1F800040846B0F8000420F426
:102CA0000040A1F80004012240F225510648FEF739
:102CB00000FF84E731383030000000003830383011
:102CC0000000000030000020003801404C45465410
:102CD0005F4D4F56455F000052494748545F4D4F86
:102CE00056455F0046494748545F0000FFF780FEA5
:102CF000FFF782F9FFF769FEFFF7B3FDFFF7D6FE96
:102D0000FFF73EFF00BFFEE7D2B201E000F8012B63
:102D1000491EFBD270470022F6E710B513460A465B
:102D200004461946FFF7F0FF204610BD30B50546B2
:102D30002A460B4612F8010B13F8014B08B1A042CA
:102D4000F8D01CB1002802D06D1CF1E7284630BD38
:102D500030B50B46014600202022012409E021FA6B
:102D600002F59D4205D303FA02F5491B04FA02F568
:102D70002844151EA2F10102F1DC30BD064C074DBE
:102D800006E0E06840F0010394E80700984710343B
:102D9000AC42F6D3FDF7AEF9CC2F0008EC2F0008BB
:102DA0000FB4054B10B503A9044A029800F02CF8A3
:102DB00010BC5DF814FB0000692A00082C000020FC
:102DC0000FB4084B10B504A902AA039800F01CF830
:102DD000044602A9002000F0F3F8204610BC5DF87C
:102DE00014FB0000C12F000802E008C8121F08C130
:102DF000002AFAD170477047002001E001C1121F7C
:102E0000002AFBD1704700002DE9FF4F8BB09A4696
:102E10000F460546002606E025280BD052460D99A0
:102E200090476D1C761C28780028F5D10FB03046ED
:102E3000BDE8F08F0024A0460122604900E0044371
:102E400015F8013F203B02FA03F00842F7D1287839
:102E50002E2817D115F8010F44F004042A280ED0AB
:102E60006FF02F022878A0F1300109290AD808EB69
:102E7000880102EB410100EB01086D1CF2E757F8F5
:102E8000048B6D1C287869283ED006DC0028CDD044
:102E900063280BD0642804D136E0732810D075283D
:102EA0004BD052460D999047761C85E017F8040BDD
:102EB0008DF8000000208DF80100E946012003E0B4
:102EC00057F8049B4FF0FF3061074FF0000401D426
:102ED0000AE0641C44450DDA8442FADB19F8041058
:102EE0000029F6D106E0641C8442FCDB19F80410CA
:102EF0000029F8D1264404E019F8010B52460D9937
:102F00009047641EF8D257E001CF4FF00A0B00281B
:102F100002DA40422D2102E0210504D52B218DF853
:102F20002410012103E0E10705D02021F7E70DF18E
:102F3000200908910CE00021F9E701CF4FF00A0BBE
:102F4000F9E75946FFF704FF01F1300209F8012DB6
:102F50000028F6D1ADEB090000F1200B600701D489
:102F60004FF00108D84502DDA8EB0B0000E000207F
:102F70008046002406E009A85246005D0D9990475E
:102F8000641C761C08988442F5DB04E0302052462D
:102F90000D999047761CB8F10001A8F10108F5DC05
:102FA00005E019F8010B52460D999047761CBBF1CC
:102FB0000001ABF1010BF4DC6D1C34E709280100C2
:102FC0000A68531C0B60107070470000EC2F00085B
:102FD0000000002030000000E82D00081C30000830
:102FE0003000002008080000F82D000800A24A0464
:102FF00000000000000000000102030406070809A9
:10300000000000000102030401020304060708098E
:0C301000020406080000000000000000A0
:04000005080000ED02
:00000001FF
