:020000040800F2
:100000003808002025030008112C0008132C0008D4
:10001000172C00081B2C00081F2C000800000000F3
:10002000000000000000000000000000232C000879
:10003000252C000800000000272C0008292C0008AF
:100040003F0300083F0300083F0300083F03000888
:100050003F0300083F0300083F0300083F03000878
:100060003F0300083F0300083F0300083F03000868
:100070003F0300083F0300083F0300083F03000858
:100080003F0300083F0300083F0300083F03000848
:100090003F0300083F0300083F0300083F03000838
:1000A0003F0300083F0300083F0300083F03000828
:1000B0003F0300083F0300083F0300083F03000818
:1000C0003F0300083F0300083F0300083F03000808
:1000D0003F030008312C00083F0300083F030008DD
:1000E0003F0300083F0300083F0300083F030008E8
:1000F0003F0300083F0300083F0300083F030008D8
:100100003F0300083F0300083F0300083F030008C7
:100110003F0300083F0300083F0300083F030008B7
:100120003F0300083F0300083F0300083F030008A7
:10013000DFF80CD002F0F4FD00480047E92B00087E
:10014000380800200CB50020019000906C48006831
:1001500040F480306A49086000BF6948006800F4D4
:10016000003000900198401C0190009818B9019847
:10017000B0F5A06FF1D16248006800F4003010B112
:100180000120009001E0002000900098012843D158
:100190005C48006840F010005A4908600846006852
:1001A00020F0030008600846006840F00200086084
:1001B00053484068524948600846406848600846CD
:1001C000406840F4806048600846406820F47C1035
:1001D00048600846406840F4E810486008460068F7
:1001E00040F08070086000BF4548006800F0007073
:1001F0000028F9D04248406820F003004049486098
:100200000846406840F00200486000BF3C48406833
:1002100000F00C000828F9D10CBD10B5FFF792FFD3
:1002200010BD10B53648006840F001003449086040
:10023000084640683449084031494860084600682B
:10024000324908402E4908600846006820F48020A2
:1002500008600846406820F4FE0048604FF41F0024
:100260008860FFF7DAFF4FF000602949086010BD91
:1002700010B5002100200022214B5B6803F00C0127
:1002800021B1042906D0082928D107E0214B224CAE
:10029000236027E01F4B204C236023E0184B5B6852
:1002A00003F47010164B5B6803F48032022303EBF7
:1002B000904022B9194B4343174C23600DE0104B7B
:1002C0005B6803F4003323B1144B4343124C2360A7
:1002D00003E0104B4343104C236003E00D4B0E4CE6
:1002E000236000BF00BF064B5B68C3F303130C4CD5
:1002F000E15C094B1B68CB40074C236010BD00003C
:1003000000100240002002400000FFF8FFFFF6FE50
:1003100008ED00E000127A000000002000093D0016
:10032000040000200648804706480047FEE7FEE735
:10033000FEE7FEE7FEE7FEE7FEE7FEE7FEE7FEE795
:10034000230200083101000831490143314A11609C
:10035000704770B5002100230F22C47804B32D4CE0
:10036000246804F4E064C4F5E064210AC1F10403E4
:10037000CA40447804FA03F1847814402143090107
:10038000254C0678A155047804F01F050124AC40E3
:1003900005786D11AD0005F1E025C5F8004109E0D3
:1003A000047804F01F050124AC401C4D067876113A
:1003B00045F8264070BD1A4A0A400243154B1B1FE0
:1003C0001A60704739B1134A121D12680243114B6B
:1003D0001B1D1A6006E00F4A121D126882430D4B66
:1003E0001B1D1A607047042808D14FF0E0210969ED
:1003F00041F004014FF0E022116107E04FF0E021ED
:10040000096921F004014FF0E022116170470000FA
:100410000000FA050CED00E000E400E080E100E0FF
:1004200080FFFF1F10B50446CC48844208D101214B
:10043000042000F02DFB0021042000F029FB46E001
:10044000C748844208D10121082000F021FB002187
:10045000082000F01DFB3AE0C248844208D1012187
:10046000102000F015FB0021102000F011FB2EE001
:10047000BD48844208D10121202000F009FB002161
:10048000202000F005FB22E0B848844208D1012179
:10049000402000F0FDFA0021402000F0F9FA16E0BB
:1004A000B348844208D10121802000F0F1FA0021F4
:1004B000802000F0EDFA0AE0AE48844207D1012125
:1004C000801500F0E5FA0021A01500F0E1FA10BD5A
:1004D00010B50121084600F0DBFA0021012000F0F0
:1004E000D7FA10BD2DE9F041024600250026002074
:1004F00000230024002791F803C00CF00F0591F8A9
:1005000003C00CF0100CBCF1000F03D091F802C036
:100510004CEA050591F800C0BCF1000F31D0146819
:1005200000202BE04FF0010C0CFA00F3B1F800C0F2
:100530000CEA03069E4220D183004FF00F0C0CFA08
:1005400003F7BC4305FA03FC4CEA040491F803C02A
:10055000BCF1280F06D14FF0010C0CFA00FCC2F8D8
:1005600014C00AE091F803C0BCF1480F05D14FF068
:10057000010C0CFA00FCC2F810C0401C0828D1D3B2
:100580001460B1F800C0BCF1FF0F34DD54680020E6
:100590002EE000F1080C4FF0010808FA0CF3B1F856
:1005A00000C00CEA03069E4221D183004FF00F0CDD
:1005B0000CFA03F7BC4305FA03FC4CEA040491F877
:1005C00003C0BCF1280F05D100F1080C08FA0CF8A3
:1005D000C2F8148091F803C0BCF1480F07D100F1B4
:1005E000080C4FF0010808FA0CF8C2F81080401C03
:1005F0000828CED35460BDE8F0814FF6FF7101802A
:10060000022181700421C170704702460020936866
:100610000B400BB1012000E00020704701468868C4
:1006200080B2704702460020D3680B400BB1012016
:1006300000E0002070470146C86880B27047016141
:100640007047416170470AB1016100E04161704744
:10065000C16070474FF480320A43826181618261D8
:1006600082698269704702460020434B18684FF642
:100670008073184040EA021008433F4B18607047EF
:100680003E49C8617047F0B50A46002300240021A6
:10069000002500F00046B6F1004F02D1364EF16958
:1006A00001E0354E7168C0F3034583B200F4401693
:1006B000B6F5401F08D121F070612F4E766826F004
:1006C00070662D4F7E6012E000F48016B6F5801F34
:1006D00006D1032606FA05F4A14341F0706106E055
:1006E000460D360103FA06F6B14341F0706122B1BE
:1006F000460D360103FA06F6314300F00046B6F126
:10070000004F02D11C4EF16101E01B4E7160F0BD43
:1007100030B500228B071C0F0F2303FA04F2164B8F
:1007200008338C1053F824309343134C08348D1045
:1007300044F8253023468C1053F824308C07240FBE
:1007400000FA04F423430C4C08348D1044F825308F
:1007500030BD0A49DC3108607047000000080140E4
:10076000000C01400010014000140140001801403D
:10077000001C014000200140000001400000204218
:10078000DF48006840F00100DD4908600846406825
:10079000DC490840DA49486008460068DA49084000
:1007A000D74908600846006820F4802008600846A1
:1007B000406820F4FE0048604FF41F0088607047D6
:1007C000CF49096821F48031CD4A1160114609688A
:1007D00021F480211160B0F5803F03D0B0F5802F67
:1007E0000ED106E0C649096841F48031C44A11605F
:1007F00007E0C349096841F4A021C14A116000E043
:1008000000BF00BF704710B5014600220023002042
:100810004A11012A02D1BA4C236806E0022A02D109
:10082000B74C236A01E0B64C636A01F01F02012451
:1008300094401C400CB1012000E0002010BD38B5F0
:10084000002000900024002500BF3120FFF7DBFFCF
:1008500005460098401C00900098B0F5A06F01D0AC
:10086000002DF2D03120FFF7CEFF08B1012400E0C7
:100870000024204638BD01460020A14A106820F01F
:10088000F80040EAC10010607047A0490860704756
:10089000024600209A4B586820F47C1042EA01037B
:1008A0001843974B5860704798490866704701464F
:1008B0000020934A506820F00300084350607047BE
:1008C0008F48406800F00C007047014600208C4AB9
:1008D000506820F0F0000843506070470146002047
:1008E000874A506820F4E060084350607047014632
:1008F0000020834A506820F4605040EAC1005060F4
:10090000704729B17E4A527A02437D4B5A7204E005
:100910007B4A527A82437A4B5A7270477B49D8316C
:100920000860704701460020754A506820F4404036
:100930000843506070470021714A20321170704A9C
:1009400082F82010012802D004280AD104E00121F5
:100950006B4A2032117005E00521694A203211707E
:1009600000E000BF00BF70476949086070476449F4
:10097000096A0143624A1162704765494439086057
:10098000704730B500210022002400235C4D6D68C3
:1009900005F00C0121B1042905D0082923D105E077
:1009A0005C4D056022E05B4D05601FE0544D6D68B5
:1009B00005F47012524D6D6805F48034022505EB84
:1009C00092421CB9544D554305600BE04C4D6D6887
:1009D00005F400351DB1504D5543056002E04D4D05
:1009E0005543056002E04B4D056000BF00BF444D1C
:1009F0006D6805F0F0010909484D6B5C0568DD4044
:100A000045603F4D6D6805F4E061090A434D6B5C3C
:100A10004568DD4085603A4D6D6805F46051C90A4E
:100A20003E4D6B5C4568DD40C560354D6D6805F435
:100A30004041890B3A4D6B5CC568B5FBF3F5056128
:100A400030BD29B12E4A526902432D4B5A6104E050
:100A50002B4A526982432A4B5A61704729B1284A6E
:100A600092690243264B9A6104E0254A92698243C7
:100A7000234B9A61704729B1214AD2690243204B26
:100A8000DA6104E01E4AD26982431D4BDA61704785
:100A900029B11B4AD2680243194BDA6004E0184AB4
:100AA000D2688243164BDA60704729B1144A126942
:100AB0000243134B1A6104E0114A12698243104B3E
:100AC0001A61704712494039086070470F49C8647D
:100AD00070470B49C87170470948406A40F0807000
:100AE00007494862704701460020054A92680A405B
:100AF0000AB1012000E00020704701498872704768
:100B0000001002400000FFF8FFFFF6FE0000424226
:100B10008004424200127A0000093D0014000020C7
:100B20002400002010B50446FE48844208D101216B
:100B3000C014FFF7ADFF0021E014FFF7A9FFC4E0E8
:100B4000B4F1804F08D101210846FFF7AEFF002124
:100B50000120FFF7AAFFB8E0F348844208D1012141
:100B60000220FFF7A2FF00210220FFF79EFFACE06A
:100B7000EE48844208D101210420FFF796FF0021AE
:100B80000420FFF792FFA0E0E948844208D1012148
:100B90000820FFF78AFF00210820FFF786FF94E076
:100BA000E448844208D101211020FFF77EFF002194
:100BB0001020FFF77AFF88E0DF48844208D1012146
:100BC0002020FFF772FF00212020FFF76EFF7CE05E
:100BD000DA48844208D101214014FFF759FF00216F
:100BE0006014FFF755FF70E0D548844209D1012118
:100BF000C804FFF74DFF00214FF40020FFF748FF26
:100C000063E0D048844209D101210805FFF740FF85
:100C100000214FF48010FFF73BFF56E0CA488442A2
:100C200009D101214805FFF733FF00214FF40010DF
:100C3000FFF72EFF49E0C548844208D1012140203A
:100C4000FFF733FF00214020FFF72FFF3DE0C048B2
:100C5000844208D101218020FFF727FF0021802056
:100C6000FFF723FF31E0BB48844208D10121801502
:100C7000FFF71BFF0021A015FFF717FF25E0B6487F
:100C8000844209D101210804FFF702FF00214FF43B
:100C90008030FFF7FDFE18E0B048844209D1012101
:100CA0004804FFF7F5FE00214FF40030FFF7F0FE97
:100CB0000BE0AB48844208D101218804FFF7E8FE2D
:100CC00000214FF48020FFF7E3FE10BD00220288D0
:100CD000944B98420ED0994B98420BD0B0F1804F74
:100CE00008D0914B984205D0904B984202D0904B3F
:100CF000984204D14FF68F731A404B881A438D4B9C
:100D0000984207D08C4B984204D04FF6FF431A40CC
:100D1000CB881A4302808B8883850B880385814B9F
:100D200098420BD0854B984208D08B4B984205D007
:100D30008A4B984202D08A4B984201D10B7A0386A3
:100D400001238382704770B5002400220023058CA4
:100D50004FF6FE7635400584028C8388048B4FF66F
:100D60008F752C40B51E2C400D882C43751E2A40D3
:100D70000D892A434D882A436A4DA8420BD06F4DF6
:100D8000A84208D0744DA84205D0744DA84202D0A4
:100D9000734DA84213D14FF6F7752A404D892A4367
:100DA0004FF6FB752A408D882A434FF6FF652B408E
:100DB0004FF6FF552B408D892B43CD892B438380E4
:100DC0000483CD888586028470BD70B5002400221E
:100DD0000023058C4FF6EF7635400584028C83881E
:100DE000048B48F6FF752C404FF6FF452C400D88CC
:100DF0004FF6FF7606EA05252C434FF6DF752A40AD
:100E00000D8906EA05152A434D8806EA05152A4389
:100E1000444DA84202D0494DA8421DD14FF67F75DE
:100E20002A404D894FF6FF7606EA05152A434FF60C
:100E3000BF752A408D8806EA05152A434FF6FF350F
:100E40002B404FF2FF752B408D8906EA85052B4319
:100E5000CD8906EA85052B4383800483CD880587E9
:100E6000028470BD70B5002400220023058C4FF66B
:100E7000FF6635400584028C8388848B4FF68F751E
:100E80002C404FF6FC752C400D882C434FF6FF5537
:100E90002A400D894FF6FF7606EA05252A434D883C
:100EA00006EA05252A431F4DA84202D0234DA84239
:100EB0001DD14FF2FF752A404D894FF6FF7606EAA5
:100EC00005252A434FF6FF352A408D8806EA052579
:100ED0002A434EF6FF752B404DF6FF752B408D894A
:100EE00006EA05152B43CD8906EA05152B438380B9
:100EF0008483CD888587028470BD70B5002200236D
:100F00000024058C4EF6FF7635400584038C8488DA
:100F1000828B48F6FF752A404FF6FF452A400D8820
:100F200020E00000002C01400004004000080040C8
:100F3000000C00400010004000140040003401404C
:100F4000004C014000500140005401400018004096
:100F5000001C0040002000400040014000440140CF
:100F6000004801404FF6FF7606EA05252A434DF674
:100F7000FF752B400D8906EA05352B434D8806EA9F
:100F800005352B43FA4DA84202D0FA4DA84208D1AC
:100F90004BF6FF752C408D894FF6FF7606EA8515D6
:100FA0002C4384808283CD88A0F84050038470BD98
:100FB000828B4FF2FF331A408283828B4FF6FF738E
:100FC00003EA01231A4382837047F0B50C461546A5
:100FD000002200210026078C4EF6FF7C07EA0C0752
:100FE0000784828B018C4FF6FF7707EA043640F6C0
:100FF000FF473A404FF6FF7707EA05273A434FF697
:10100000FF7707EA03373A43D94FB8420ED0D94F9A
:10101000B8420BD0B0F1804F08D0D74FB84205D0BE
:10102000D64FB84202D0D64FB84206D14DF6FF7720
:10103000394046F48057394305E047F6FF573940B9
:1010400044F48057394382830184F0BD828B4FF68C
:10105000F3731A408283828B0A4382837047F0B510
:101060000C461546002200210026078C4FF6FF6C27
:1010700007EA0C070784828B018C4FF6FF7707EA9B
:1010800004264FF60C773A404FF6FF7707EA03172E
:101090002F433A43B64FB8420ED0B64FB8420BD0AA
:1010A000B0F1804F08D0B44FB84205D0B34FB8422A
:1010B00002D0B34FB84206D14FF6FF57394046F43D
:1010C0008077394305E04FF2FF57394044F4807789
:1010D000394382830184F0BD028B4FF2FF331A4003
:1010E0000283028B4FF6FF7303EA01231A43028344
:1010F0007047F0B50C461546002200210026078CEB
:101100004FF6EF7C07EA0C070784028B018C4FF641
:10111000FF7707EA041640F6FF473A404FF6FF779D
:1011200007EA03373A434FF6FF7707EA05273A43C2
:101130008F4FB8420ED08F4FB8420BD0B0F1804FD6
:1011400008D08D4FB84205D08C4FB84202D08C4F9A
:10115000B84206D14FF6DF77394046F010073943E1
:1011600005E04FF65F77394044F0100739430283BA
:101170000184F0BD028B4FF6F3731A400283028B99
:101180000A4302837047F0B50C4615460022002141
:10119000068C4FF6FE773E400684028B018C4FF69C
:1011A0000C7632407E1C06EA03162E433243704E04
:1011B000B0420ED06F4EB0420BD0B0F1804F08D08D
:1011C0006D4EB04205D06D4EB04202D06C4EB04272
:1011D00006D14FF6FD76314044F00106314305E07B
:1011E0004FF6F576314044F0010631430283018425
:1011F000F0BD70B505460C465D4885420ED05D4891
:1012000085420BD0B5F1804F08D05B48854205D0B0
:101210005A48854202D05A48854200D100E000BFBA
:10122000208850B92389A28861882846FFF7ABFF40
:10123000E1882846FFF79EFF25E0208804280AD190
:101240002389A28861882846FFF753FFE188284652
:10125000FFF742FF17E0208808280AD12389A288D7
:1012600061882846FFF7FBFEE1882846FFF7EEFE7F
:1012700009E02389A28861882846FFF7A6FEE18855
:101280002846FFF795FE70BD2DE9F04105460C4656
:1012900000260127608808B9022600E00026A08801
:1012A000012801D1022700E001272088A0B9238965
:1012B000A28861882846FFF766FFE1882846FFF785
:1012C00059FF23893A4631462846FFF712FFE18845
:1012D0002846FFF701FF13E02389A288618828468A
:1012E000FFF707FFE1882846FFF7F6FE23893A4615
:1012F00031462846FFF747FFE1882846FFF73AFFC7
:10130000BDE8F0810A884B881A438B881A43CB8842
:101310001A430B891A434B891A438B891A43A0F845
:10132000442070474FF6FF71818000210180C18009
:101330004180017270470021018041808180C1801D
:10134000018141818181C1817047002101804180FB
:10135000012181800021C18001817047002101802D
:1013600041808180C180018141818181704700007D
:10137000002C0140003401400004004000080040FF
:10138000000C004021B1028842F00102028004E01A
:1013900002884FF6FE731A400280704731B1B0F8F0
:1013A000442042F40042A0F8442005E0B0F8442074
:1013B000C2F30E02A0F8442070471AB183890B4390
:1013C000838102E083898B438381704781827047E8
:1013D00041EA0203A0F8483070471AB183890B43F1
:1013E000838102E083898B438381704701894FF6B3
:1013F000F8721140018170470A46002101894FF6B9
:101400008F73194011430181704730B504460D4672
:1014100029462046FFF7F0FF208940F00700208191
:1014200030BD2DE9F04104460D4616461F46602D9D
:1014300006D13B46012231462046FFF75AFE05E021
:101440003B46012231462046FFF79DFE29462046B5
:10145000FFF7D2FF208940F007002081BDE8F0812E
:1014600030B50C4600210189C9B24FF6FF7505EA77
:101470000325154325432943018130BD2DE9F04162
:1014800005460E4617469846002443463A463146DE
:101490002846FFF7E5FF2C894FF6F870044044F02A
:1014A00007044FF68F70044044F070042C81BDE8AF
:1014B000F081F0B504460D4616461F463B463246BF
:1014C00029462046FFF7CCFF208940F48040208148
:1014D000F0BD0185828270470A46002101884FF6DF
:1014E0008F731940114301807047F0B50C461546C3
:1014F0001E460021002200230189028B038C4FF637
:10150000F877394021434FF6FC473A4040F2011743
:101510003A434FF6DD773B404FF6FF7707EA061771
:101520002F433B43018102830384F0BD0A4600211F
:10153000018B4FF68F7319401143018370470A46A0
:101540000021018B48F6FF7319404FF6FF7303EA41
:1015500002231943018370470A460021818B4FF60D
:101560008F7319401143818370470A460021818B94
:1015700048F6FF7319404FF6FF7303EA022319433D
:101580008183704721B1028842F08002028004E02A
:1015900002884FF67F731A400280704721B182881B
:1015A00042F00402828004E082884FF6FB731A4006
:1015B0008280704721B1828842F00802828004E074
:1015C00082884FF6F7731A408280704721B1828873
:1015D00042F00102828004E082884FF6FE731A40D6
:1015E000828070470A460021018B4FF6F77319403D
:1015F0001143018370470A460021018B4FF2FF73AC
:1016000019404FF6FF7303EA022319430183704721
:101610000A460021818B4FF6F773194011438183ED
:1016200070470A460021818B4FF2FF7319404FF635
:10163000FF7303EA02231943818370470A4600219E
:10164000018B4FF6FB7319401143018370470A4623
:101650000021018B4FF6FF3319404FF6FF7303EA69
:1016600002231943018370470A460021818B4FF6FC
:10167000FB7319401143818370470A460021818B17
:101680004FF6FF3319404FF6FF7303EA0223194365
:10169000818370470A460021018B4FF67F73194002
:1016A0001143018370470A460021018BC1F30E01EB
:1016B0004FF6FF7303EA02231943018370470A467A
:1016C0000021818B4FF67F7319401143818370474E
:1016D0000A460021818BC1F30E014FF6FF7303EA26
:1016E00002231943818370470A460021018C4FF67B
:1016F000FD7319401143018470470A460021018C93
:101700004FF6F77319401143018470470A460021D0
:10171000018C4FF6DF7319404FF6FF7303EA021393
:101720001943018470470A460021018C4FF67F73EC
:1017300019404FF6FF7303EA0213194301847047FF
:101740000A460021018C4FF6FF5319404FF6FF73F4
:1017500003EA02231943018470470A460021018CE1
:101760004FF2FF7319404FF6FF7303EA0223194348
:10177000018470470A460021018C4DF6FF73194021
:101780004FF6FF7303EA023319430184704730B503
:10179000002301248C40A3B2048C9C430484048C59
:1017A00002FA01F5ADB22C43048430BD30B50023FC
:1017B00004248C40A3B2048C9C430484048C02FA5D
:1017C00001F5ADB22C43048430BD70B50346002052
:1017D00000241846183001258D40ACB21D8CA5435D
:1017E0001D8409B1082909D100EB6100056825F0C5
:1017F000700505600568154305600EE00D1FC5F313
:101800004E052844056825F4E045056005684FF657
:10181000FF7606EA02263543056070BD21B10288D5
:1018200042F00202028004E002884FF6FD731A4083
:101830000280704721B1028842F00402028004E075
:1018400002884FF6FB731A400280704721B18288EC
:1018500042F08002828004E082884FF67F731A4053
:101860008280704702884FF6F7731A400280028820
:101870000A430280704782884FF68F731A40828035
:1018800082880A438280704702894FF6F8731A40B3
:10189000028102890A430281704702894FF67F73F1
:1018A0001A40028102890A4302817047818470478D
:1018B00081857047818670470187704781877047AF
:1018C000A0F84010704702884FF6FF431A4002808C
:1018D00002880A43028070470146888E704701469D
:1018E000088F70470146888F70470146B1F8400065
:1018F00070470146888C70470146088D7047024644
:101900000020138A0B400BB1012000E0002070473B
:10191000CA430282704730B50246002000230024EB
:10192000158A05EA0103958905EA010413B10CB192
:10193000012000E0002030BDCA4302827047000051
:1019400010B50446FB48844209D101218803FFF702
:101950009FF800214FF48040FFF79AF832E0F648F4
:10196000844209D101214804FFF79FF800214FF478
:101970000030FFF79AF825E0F048844209D10121B0
:101980008804FFF792F800214FF48020FFF78DF8CC
:1019900018E0EB48844209D10121C804FFF785F81B
:1019A00000214FF40020FFF780F80BE0E548844267
:1019B00008D101210805FFF778F800214FF48010C5
:1019C000FFF773F810BD2DE9F04786B005460E46C7
:1019D0000024A24600BFA1460027B08900B100BF85
:1019E0002F462C8A4CF6FF700440F08804432C826A
:1019F000AC894EF6F3100440B088318908437189F0
:101A000008430443AC81AC8A4FF6FF400440B089E0
:101A10000443AC8201A8FEF7B4FFC648874202D156
:101A2000DDF810A001E0DDF80CA0A88900F400406A
:101A300040B10AEBCA0000EB0A1031684900B0FB64
:101A4000F1F807E00AEBCA0000EB0A1031688900E0
:101A5000B0FBF1F86420B8FBF0F004012009642128
:101A600001FB1089A88900F4004040B1322000EB4E
:101A7000C900B0FBF1F000F00700044308E0322099
:101A800000EB09106421B0FBF1F000F00F000443FB
:101A90002C8106B0BDE8F0874FF41651016000219B
:101AA0008180C18001810C214181002181817047A9
:101AB00010B502460020108A4FF2FF0318400B8831
:101AC0004C8823438C882343CC88234318431082BB
:101AD00010BD0021018041808180C180704721B10B
:101AE000828942F40052828104E082894DF6FF73BC
:101AF0001A4082817047F0B5034600240026002575
:101B0000002040F66A17B94200D100BF1846C1F361
:101B1000421401F01F06012707FA06F5012C01D136
:101B20000C3004E0022C01D1103000E014301AB166
:101B300007682F43076002E00768AF430760F0BD06
:101B40001AB1838A0B43838202E0838A8B438382A8
:101B50007047028A4FF6F0731A400282028A0A43E3
:101B60000282704782894FF2FF731A408281828914
:101B70000A438281704721B1828942F00202828148
:101B800004E082894FF6FD731A4082817047028A11
:101B90004FF6DF731A400282028A0A4302827047BC
:101BA00021B1028A42F48042028204E0028A4BF6AA
:101BB000FF731A4002827047C1F3080282807047A7
:101BC00001468888C0F308007047818941F001010F
:101BD00081817047028BD2B20283028B42EA0122DA
:101BE00002837047028B02F47F420283028B0A4316
:101BF0000283704721B1828A42F02002828204E08F
:101C0000828A4FF6DF731A408282704721B1828A3E
:101C100042F01002828204E0828A4FF6EF731A408B
:101C20008282704721B1828A42F00802828204E0F7
:101C3000828A4FF6F7731A408282704721B18289F7
:101C400042F40042828103E08289C2F30E02828163
:101C5000704721B1828A42F40062828204E0828A63
:101C60004FF2FF731A4082827047828A4FF6FB73ED
:101C70001A408282828A0A438282704721B1828A14
:101C800042F00202828204E0828A4FF6FD731A401B
:101C90008282704702460020B1F5007F00D100BF6C
:101CA00013880B400BB1012000E00020704701F4C5
:101CB0000072B2F5007F00D100BFCA4302807047B6
:101CC00070B50246002400230025002040F66A1665
:101CD000B14200D100BFC1F3421501F01F0301263C
:101CE00006FA03F3012D02D19689334006E0022D56
:101CF00002D1168A334001E0968A33400C12012645
:101D000006FA04F41688344013B10CB1012000E047
:101D1000002070BD10B50022002340F66A14A142D5
:101D200000D100BF0A1201249440A3B2DC43048016
:101D300010BD000000380140004400400048004051
:101D4000004C0040005000409AB0642101A800F00F
:101D5000B4FF20213D48FEF772FC3DA301AA3EA13D
:101D600040A000F0EFFF4F48B0F800046FF30E0002
:101D70004C49A1F800040846B0F8000420F40040E3
:101D800000F50040A1F800045EE04648B0F8000409
:101D9000C00B002858D0002240F225514248FFF7DE
:101DA000AAFE00203F49B1F80014C1F30E013D4ADC
:101DB00050543EA1104600F08BFF041E0FD094F843
:101DC0000A80E77AA7F13000A8F1300101EB810128
:101DD00000EB4100C5B2294637A000F0B3FF39A19E
:101DE000304800F075FF041E0FD094F80B80277B5D
:101DF000A7F13000A8F1300101EB810100EB4100B7
:101E0000C6B2314632A000F09DFF34A1254800F053
:101E10005FFF041E03D094F80680E77900BF2148D5
:101E2000B0F800046FF30E001E49A1F80004084644
:101E3000B0F8000420F40040A1F80004012240F2B0
:101E400025511948FFF757FE9FE7000000080140A1
:101E5000383038300000000042696E6768756F4C9A
:101E6000696E6B000D0AB1BEC4A3BFE9574946496C
:101E7000CEAA2573A3ACC3DCC2EBBFAAB7C50D0ABB
:101E8000415020495020CEAAA3BA2573A3ACBFAAC3
:101E9000C6F4B5C4B6CBBFDACEAAA3BA25730D0A71
:101EA0000000000030000020003801404C4546543E
:101EB0005F4D4F56455F00004C6566743D25640DCF
:101EC0000A00000052494748545F4D4F56455F0095
:101ED00052696768743D25640D0A00004649474809
:101EE000545F000008B54FF4A060FEF72DFA2520DE
:101EF0008DF8000000208DF801008DF8020001200F
:101F00008DF803006846FEF724FA08BD00B585B0D9
:101F100001218803FEF7A2FD01210820FEF79EFDA6
:101F20004FF48060ADF8100018208DF813000320E6
:101F30008DF8120004A9F848FEF7D4FA4FF40060B7
:101F4000ADF8100004208DF8130004A9F248FEF744
:101F5000C9FA4FF4E13000900020ADF80400ADF86C
:101F60000600ADF80800ADF80C000C20ADF80A0032
:101F70006946EA48FFF727FD012240F22551E7486C
:101F8000FFF7B9FD012240F22441E448FFF7B3FD19
:101F9000FFF7A8FF0121E148FFF7A1FD05B000BD53
:101FA00008B501210802FEF759FD2020ADF8000018
:101FB00010208DF8030003208DF802006946D848F0
:101FC000FEF790FA01210802FEF748FD4020ADF827
:101FD00000006946D248FEF785FA08BD10B5FFF744
:101FE000DFFFFFF793FF4021CD48FEF728FB2021BC
:101FF000CB48FEF726FB10BD10B54021C848FEF7C0
:1020000020FBC84800F06DFD4021C548FEF717FBD6
:1020100010BD2DE9F04106460C4615461F46C24844
:10202000B0F800046FF30E00BF49A1F80004324677
:10203000BEA1BA4800F061FC1CB915B90120BDE889
:10204000F0814FF47A7107FB01F000F04AFD0020A7
:10205000B549B1F80014C1F30E01B34A505411460A
:10206000B4A000F06FFEB4B1ADB12146AE4800F0AF
:102070002FFE08B1012000E0002040B92946AA48FF
:1020800000F026FE08B1012000E0002008B1012088
:10209000D5E70020D3E744B12146A34800F018FE5D
:1020A00008B10120CBE70020C9E729469E4800F08F
:1020B0000FFE08B10120C2E70020C0E710B50024E0
:1020C00040219748FEF7BBFA9B4800F00AFD0CE060
:1020D0004FF4FA73002299A199A0FFF79AFF00B17B
:1020E00010BDFFF789FF601CC4B20A2CF0DB00BFF3
:1020F000F6E710B5044624B1012C0AD0022C18D101
:102100000FE040F6C4138FA28CA191A0FFF781FFCE
:1021100010BD40F6C4138BA288A190A0FFF779FFF1
:10212000F6E740F6C41387A284A18FA0FFF771FFE2
:10213000EEE70020ECE730B59FB004460D462B4695
:1021400022468CA101A800F00DFE41F28833002246
:102150007AA101A8FFF75DFF1FB030BD70B5A0B038
:1021600004460D4616462B46224687A102A8009635
:1021700000F0F8FD4FF47A73002270A102A8FFF777
:1021800048FF20B070BD10B586B004460CB10120E8
:1021900000E00020024682A101A800F0E3FD4FF418
:1021A000FA73002265A101A8FFF733FF06B010BD46
:1021B000F0B5B9B006460F4614461D46642120A866
:1021C00000F07BFD16B1012E10D107E03B4678A24E
:1021D00078A120A8009400F0C5FD08E03B4679A254
:1021E00074A120A8009400F0BDFD00E000BF00BF76
:1021F000052D06DA20AB2A4673A102A800F0B2FD35
:1022000004E020AA75A102A800F0ACFD4FF47A63A7
:1022100076A24AA102A8FFF7FCFE39B0F0BD70B566
:10222000BCB004460D461646FCB12B46012273A1F4
:102230001EA800F097FD324675A1684600F092FD99
:102240004FF4FA7300223DA11EA8FFF7E2FE50B141
:102250004FF4FA73002239A16846FFF7DAFE10B195
:1022600001203CB070BD0020FBE72B46002263A19B
:102270001EA800F077FD4FF4FA7300222FA11EA8CC
:10228000FFF7C7FEEDE710B54FF4FA7300222BA15C
:1022900063A0FFF7BEFEA0B165A1234800F018FDC2
:1022A00008B1022010BD65A11F4800F011FD08B162
:1022B0000320F7E764A11C4800F00AFD08B10420E0
:1022C000F0E70020EEE710B500244FF4FA73002287
:1022D0001AA153A0FFF79DFE00281CD05DA1124853
:1022E00000F0F6FC10B144F0010401E024F0010418
:1022F0005CA10D4800F0ECFC10B144F0020401E0D8
:1023000024F002045BA1084800F0E2FC10B144F0A4
:102310000404B9E0B6E0CBE0000C01400038014015
:102320000008014020A107003000002025730D0A9D
:10233000000000002573000040420F004F4B0000DA
:10234000415400006E6F206368616E676500000095
:1023500041542B43574D4F44453D310041542B438D
:10236000574D4F44453D320041542B43574D4F4448
:10237000453D330041542B43574A41503D2225737C
:10238000222C22257322000041542B4357534150E5
:102390003D222573222C222573222C312C2564000A
:1023A00041542B4349504D55583D256400000000D1
:1023B00054435000222573222C222573222C25738E
:1023C000000000005544500041542B4349505354E1
:1023D0004152543D25642C257300000041542B4389
:1023E000495053544152543D25730000414C5245CD
:1023F000415920434F4E4E454354000041542B4316
:1024000049505345525645523D25642C25730000D2
:1024100041542B43495053544F3D25730000000055
:1024200041542B434950535441545553000000002C
:102430005354415455533A320D0A000053544154F9
:1024400055533A330D0A00005354415455533A340E
:102450000D0A00002B4349505354415455533A3010
:102460002C0000002B4349505354415455533A31EA
:102470002C0000002B4349505354415455533A32D9
:102480002C00000024F004047FA1834800F020FC0D
:1024900010B144F0080401E024F008047FA17E4854
:1024A00000F016FC10B144F0100401E024F0100418
:1024B000204610BD2DE9F04105460F464FF4FA7352
:1024C0000022AFF2881179A0FFF7A3FD7AA172482C
:1024D00000F0FEFB06460EB1B61D02E00020BDE88E
:1024E000F081002409E0305D2855285D222802D1C2
:1024F0000020285503E0601CC4B2BC42F3DB00BFDF
:102500000120ECE710B54FF4FA730022AFF2D411BA
:102510006BA0FFF77EFD08B9002010BD4FF4FA73E1
:102520006BA2AFF2E8116BA0FFF773FDF5E710B5F2
:102530006B4800F0D6FA6BA16B4800F0DEF96B48EF
:1025400000F0CFFA10BD2DE9F04186B007460C46E9
:1025500015461E464FF0000847B12246AFF22C2127
:10256000614800F0CAF94FF001081BE0052E06DAB9
:10257000AB1C32465EA101A800F0F4FB04E0AA1CEB
:1025800060A101A800F0EEFB6423002261A101A874
:10259000FFF73FFD4FF4FA7300225FA12046FFF7DB
:1025A00038FD8046404606B0BDE8F08170B504466F
:1025B00000253948B0F800046FF30E003649A1F841
:1025C00000040846B0F8000420F40040A1F800041C
:1025D00000BF3148B0F80004C00B0028F9D000203B
:1025E0002D49B1F80014C1F30E012B4A50540CB11F
:1025F000154605E04AA1284800F06AFB00B1264DC7
:10260000284670BD2DE9F041054664230022AFF253
:10261000D42145A0FFF7FDFC1EA11F4800F058FB88
:102620008046B8F1000F09D042A11B4800F050FBD2
:1026300000F10B07A8EB0700C6B202E00020BDE8DE
:10264000F081002403E0385D2855601CC4B2B44218
:10265000F9DB0020A8550120F1E710B588B0044649
:10266000224637A1684600F07DFB41F28833002204
:10267000AFF238316846FFF7CCFC10B1012008B04A
:1026800010BD0020FBE700002B4349505354415438
:1026900055533A332C000000300000202B434950A2
:1026A0005354415455533A342C00000041542B43A9
:1026B0004946535200000000415049502C2200006E
:1026C00041542B4349504D4F44453D3100000000DB
:1026D0003E00000041542B43495053454E440000F6
:1026E00040420F002B2B2B000038014020A1070097
:1026F00041542B43495053454E443D25642C256499
:102700000000000041542B43495053454E443D25A1
:10271000640000003E20000053454E44204F4B0013
:102720002B4950440000000041542B43574C49466C
:102730000000000041542B43574C49460D0D0A0040
:1027400041542B43495041503D2225732200000043
:1027500008B501210420FEF781F94020ADF8000002
:1027600018208DF8030003208DF8020069464748C1
:10277000FDF7B8FE01210420FEF770F98020ADF8C6
:10278000000018208DF8030003208DF80200694630
:102790003E48FDF7A7FE01210820FEF75FF9012062
:1027A000ADF8000018208DF8030003208DF802001A
:1027B00069463748FDF796FE01210820FEF74EF9DD
:1027C0000120ADF8000018208DF8030003208DF8DB
:1027D000020069462E48FDF785FE08BDF0B587B0BA
:1027E000002400250026002701210220FEF743F9DE
:1027F0000920ADF814004720ADF810000020ADF816
:102800001600ADF812008DF8180004A92148FEF753
:102810005DFA6020ADF800000120ADF80200002054
:10282000ADF80800ADF8064069461A48FEF78BFA85
:1028300008211848FEF7D6FEADF80650694615483F
:10284000FEF7C3FA08211348FEF7D5FEADF806607F
:1028500069461048FEF706FB08210E48FEF7D8FE31
:10286000ADF8067069460B48FEF747FB082109489A
:10287000FEF7D7FE01210748FEF784FD07B0F0BD43
:1028800010B5FFF765FFFFF7A9FF10BD0008014075
:10289000000C014000040040F0B503460D4616460A
:1028A000002729460A2E03D0002008702846F0BDD4
:1028B00033B9302001F8010B002008702846F6E7F4
:1028C000002B03DA2D2001F8010B5B4242F210725B
:1028D0000DE093FBF2F404B937B104F1300001F8D4
:1028E000010B04FB123301270A2092FBF0F2002AAD
:1028F000EFDC002008702846D9E70FB470B586B029
:1029000006460CA8019073E00B9800785C281CD157
:102910000B98401C0B9000786E2809D072280FD1BC
:102920000D213046FFF748F90B98401C0B900BE047
:102930000A213046FFF740F90B98401C0B9003E04A
:102940000B98401C0B9000BF4BE00B98007825289B
:1029500040D10B98401C0B900078642818D0732845
:1029600033D1019810C801900BE021783046FFF771
:1029700023F900BF80213046FFF78CF90028F9D0F9
:10298000641C20780028F0D10B98401C0B9020E0AC
:10299000019820C801900A2202A92846FFF77CFF6F
:1029A00002AC0BE021783046FFF706F900BF80212A
:1029B0003046FFF76FF90028F9D0641C2078002812
:1029C000F0D10B98401C0B9003E00B98401C0B902F
:1029D00000BF06E00B9810F8011B0B903046FFF784
:1029E000EBF800BF80213046FFF754F90028F9D0FA
:1029F0000B980078002887D106B070BC5DF814FBF6
:102A000008B501210820FEF729F82020ADF80000C4
:102A100010208DF8030003208DF802006946154848
:102A2000FDF760FD01210820FEF718F80120ADF840
:102A3000000069460F48FDF755FD01210820FEF70B
:102A40000DF80220ADF8000069460A48FDF74AFD7E
:102A500008BD10B5FFF7D4FF20210648FDF7EFFDB4
:102A600001210448FDF7EBFD02210248FDF7E7FDD7
:102A700010BD0000000C014030B527480068274A0F
:102A8000B0FBF2F1B1F1807F01D301201DE021F014
:102A90007F40401E4FF0E022506150170F22002867
:102AA00007DA13071D0E1E4B00F00F04241F1D55DF
:102AB00003E013071C0E1B4B1C5400BF00204FF0FB
:102AC000E022906107201061002008B100BFFEE7FE
:102AD0004FF0E020006920F001004FF0E021086194
:102AE00030BD01B51049009808604FF0E020006942
:102AF00040F001004FF0E021086100BF0A48006883
:102B00000028FBD108BD0848006820B106480068CD
:102B1000401E0549086070470000002040420F0039
:102B200018ED00E000E400E02800002000B585B0CA
:102B300001218803FDF792FF01210420FDF78EFF9C
:102B40004FF40070ADF8100018208DF8130003202A
:102B50008DF8120004A92248FDF7C4FC4FF48060F0
:102B6000ADF8100004208DF8130004A91C48FDF7EF
:102B7000B9FC4FF4E13000900020ADF80400ADF84E
:102B80000600ADF80800ADF80C000C20ADF80A0006
:102B900069461448FEF717FF01211248FEF79FFF10
:102BA00005B000BD70B504460D46E1B20D48FFF713
:102BB00003F800BF80210B48FFF76CF80028F9D01C
:102BC000204670BD10B5044600BF20210548FFF720
:102BD00061F80028F9D00348FEF7F2FF10BD0000AD
:102BE0000008014000380140FFF7A0FFFFF7F6F9A9
:102BF000FFF72FFFFFF744FE03A000F0A3F8FFF755
:102C0000A3F800BFFEE7000052454144590D0A00F9
:102C1000704700BFFEE700BFFEE700BFFEE700BF52
:102C2000FEE770477047704710B5FFF76CFF10BDA7
:102C300010B540F225511B48FFF742F8D8B11948AA
:102C4000FEF7BEFFC4B21848B0F80004C0F30E008F
:102C500040F2FF3188420EDA1349B1F80014C1F393
:102C60000E00411C104AB2F8002461F30E020E4916
:102C7000A1F800240C5440F224410A48FFF720F840
:102C800001280DD10848B0F8000420F4004000F5F8
:102C900000400549A1F800040248FEF791FFC4B2C4
:102CA00010BD00000038014030000020D2B201E029
:102CB00000F8012B491EFBD270470022F6E710B541
:102CC00013460A4604461946FFF7F0FF204610BD9A
:102CD00030B505462A460B4612F8010B13F8014B96
:102CE00008B1A042F8D01CB1002802D06D1CF1E759
:102CF000284630BD30B50B46014600202022012475
:102D000009E021FA02F59D4205D303FA02F5491BB9
:102D100004FA02F52844151EA2F10102F1DC30BDCF
:102D2000064C074D06E0E06840F0010394E8070018
:102D300098471034AC42F6D3FDF7FEF9702F000827
:102D4000902F00080FB4054B10B503A9044A029850
:102D500000F02CF810BC5DF814FB0000A52B000857
:102D60002C0000200FB4084B10B504A902AA039848
:102D700000F01CF8044602A9002000F0F3F82046F9
:102D800010BC5DF814FB0000652F000802E008C8C5
:102D9000121F08C1002AFAD170477047002001E0D5
:102DA00001C1121F002AFBD1704700002DE9FF4F1F
:102DB0008BB09A460F460546002606E025280BD024
:102DC00052460D9990476D1C761C28780028F5D145
:102DD0000FB03046BDE8F08F0024A04601226049C4
:102DE00000E0044315F8013F203B02FA03F00842DB
:102DF000F7D128782E2817D115F8010F44F00404D4
:102E00002A280ED06FF02F022878A0F1300109296E
:102E10000AD808EB880102EB410100EB01086D1CA8
:102E2000F2E757F8048B6D1C287869283ED006DC41
:102E30000028CDD063280BD0642804D136E0732855
:102E400010D075284BD052460D999047761C85E0DE
:102E500017F8040B8DF8000000208DF80100E946FA
:102E6000012003E057F8049B4FF0FF3061074FF05B
:102E7000000401D40AE0641C44450DDA8442FADB04
:102E800019F804100029F6D106E0641C8442FCDB2A
:102E900019F804100029F8D1264404E019F8010BB0
:102EA00052460D999047641EF8D257E001CF4FF07B
:102EB0000A0B002802DA40422D2102E0210504D548
:102EC0002B218DF82410012103E0E10705D02021FA
:102ED000F7E70DF1200908910CE00021F9E701CF97
:102EE0004FF00A0BF9E75946FFF704FF01F13002F2
:102EF00009F8012D0028F6D1ADEB090000F1200BF7
:102F0000600701D44FF00108D84502DDA8EB0B00A3
:102F100000E000208046002406E009A85246005D3B
:102F20000D999047641C761C08988442F5DB04E0F8
:102F3000302052460D999047761CB8F10001A8F157
:102F40000108F5DC05E019F8010B52460D99904790
:102F5000761CBBF10001ABF1010BF4DC6D1C34E716
:102F6000092801000A68531C0B60107070470000AC
:102F7000902F000800000020300000008C2D000879
:102F8000C02F000830000020080800009C2D000819
:102F900000A24A0400000000000000000102030437
:102FA00006070809000000000102030401020304EF
:102FB00006070809020406080000000000000000DF
:0400000508000131BD
:00000001FF
